:0200000460009A
:100000004643464200000156000000000103030081
:1000100000000000000000000000000000000000E0
:1000200000000000000000000000000000000000D0
:1000300000000000000000000000000000000000C0
:1000400000000000010408000000000000000000A3
:100050000000800000000000000000000000000020
:100060000000000000000000000000000000000090
:100070000000000000000000000000000000000080
:10008000EB04180A063204260000000000000000FD
:10009000050404240000000000000000000000002F
:1000A0000000000000000000000000000000000050
:1000B0000604000000000000000000000000000036
:1000C0000000000000000000000000000000000030
:1000D00020041808000000000000000000000000DC
:1000E0000000000000000000000000000000000010
:1000F0000000000000000000000000000000000000
:10010000D8041808000000000000000000000000F3
:100110000204180804200000000000000000000095
:1001200000000000000000000000000000000000CF
:10013000600400000000000000000000000000005B
:1001400000000000000000000000000000000000AF
:10015000000000000000000000000000000000009F
:10016000000000000000000000000000000000008F
:10017000000000000000000000000000000000007F
:10018000000000000000000000000000000000006F
:10019000000000000000000000000000000000005F
:1001A000000000000000000000000000000000004F
:1001B000000000000000000000000000000000003F
:1001C000000100000010000001000000000000001D
:1001D000000001000000000000000000000000001E
:1001E000000000000000000000000000000000000F
:1001F00000000000000000000000000000000000FF
:10020000FFFFFFFFFFFFFFFFFFFFFFFFFFFFFFFFFE
:10021000FFFFFFFFFFFFFFFFFFFFFFFFFFFFFFFFEE
:10100000D10020432914006000000000000000000F
:10101000201000600010006000300560000000003B
:1010200000000060003C050000000000FFFFFFFF23
:10103000FFFFFFFFFFFFFFFFFFFFFFFFFFFFFFFFC0
:10104000FFFFFFFFFFFFFFFFFFFFFFFFFFFFFFFFB0
:10105000FFFFFFFFFFFFFFFFFFFFFFFFFFFFFFFFA0
:10106000FFFFFFFFFFFFFFFFFFFFFFFFFFFFFFFF90
:10140000884207D0904205D251F8043B40F8043B93
:101410008242F9D8704700BF884204D2002340F8C6
:10142000043B8142FBD87047664B4FF42A01664A61
:1014300066482DE9F0475A641864654A99639546F1
:10144000BFF34F8FBFF36F8F00F004F9614B08209B
:10145000614A6249C3F854016148FFF7D1FF614A0C
:1014600061496248FFF7CCFF61496248FFF7D4FF4A
:10147000614C62494FF470000023614A086044F8EF
:1014800023200133B02BFAD15E4B80215E4A03F852
:10149000011B9342FBD14F4D4FF080385B494FF019
:1014A000FF325B4B0026DFF8A4A1DFF8A4911C609B
:1014B000C5F80481C5F800A1C5F8F480C5F8F0901E
:1014C0000B68544F43F4E0230B60FB693D4923F064
:1014D0007F0343F04003FB617B6A23F07F0343F00B
:1014E00040037B628A66CA660A674A6700F0B8F8FA
:1014F000494A4A4B6320A2630321E363484A494BAC
:10150000106000F160401E6042F8041C00F6A170FB
:101510004549464AC3F8082D0B68454A43F0807395
:101520000B601368434943F00103136003680B60C9
:1015300000F0E6FAC5F804813F48C5F800A1C5F8F7
:10154000F480C5F8F09000F07BFCF96E3B4A41F462
:1015500040513B4BF9661660C2F80861C2F8186149
:10156000C2F82861C2F838619A6BD20708D442F6F3
:101570001562344959651A659A6B42F001029A6303
:101580002F4A314C936843F00113936000F0DAF86E
:1015900000F088FB00F05CFC00F0B0FB00F05CF8B1
:1015A0002368132BFCD900F0DDFA2368B3F5967F8E
:1015B000FBD300F053F800F037FC00F039FC30BFEB
:1015C000FDE700BF00C00A40FFFFABAA07002000F4
:1015D0000080032000800D40786204009C200060A1
:1015E00000000000C08A00200AA304600000002060
:1015F000E0EE0020C08A00200088002088ED00E096
:101600007D00000000E400E0A0E400E024ED00E044
:1016100008ED00E000C00F40ED180000F1180000D8
:1016200014E000E018E000E0FCED00E00000202005
:10163000001000E088ED00200046C3230040084071
:1016400000400D400000C0568CED00201B101820FB
:101650000C0D1113704700BF704700BF704700BFEB
:10166000F0B5244A0020244B4FF0100C234C1126D7
:10167000DFF8C8E0122720600125C2F800C0C3F8D7
:1016800000E01660DFF8B8E01D4EC3F800E01D4929
:1016900017601E6041F015011B4F1C4E17601E6045
:1016A0001B4F1C4E17601E601B4F11601B4E1C49C8
:1016B0001F6016601B4F19601B4E1C4917601E608F
:1016C0001B4F11601B4E1C491F601660196025607E
:1016D000BFF34F8FBFF36F8FC3F8B001BFF34F8FCE
:1016E000BFF36F8F52F8883C43F4403342F8883C94
:1016F000F0BD00BF9CED00E0A0ED00E094ED00E047
:1017000009001000E0EE0020130020002100020775
:1017100014000020250008130900001016002020E6
:1017200027000B131700004033001013180000604F
:101730002F000B07190000702F000B133F00001043
:1017400025000803F0B58D4B18228D4E01208D49E0
:1017500048F20C7E8C4D4FF0FF378C4C83B0C3F8B1
:101760005C12C3F860520025C3F86412C3F86842E3
:101770004FF40054C3F86C628549C3F87062C3F833
:101780007462C3F87862834EDA661A675A679A679A
:10179000DA67C3F88020C3F88420C3F8882040F2B9
:1017A0000562C1F82C03C1F83003C1F83403C1F855
:1017B0003803C1F83C03C1F850032946B3697648A1
:1017C0001840764B03437648B361D6F8843043F033
:1017D0000C03C6F8843002260368334303600368B1
:1017E00003EA0E0E6F4B4EEA0303DFF8F0E10360ED
:1017F0006D4B4760DEF808703B406C4F43F0005380
:101800008360C36823F07803C360036A1F40684B9A
:101810003B43664F0362036A1F40654B3B43654F82
:1018200043628762C762DEF8B830634F23F03F033C
:1018300043F00103C0F8B830DEF8BC30DFF884E1D3
:1018400023F03F0343F00103C0F8BC300561046698
:101850000767C0F8802044664767C0F884200468A2
:10186000564B24F00204564A0460C0F818E0C661E2
:1018700043F8041B9342FBD1494B1A68194642F0C6
:1018800001021A600B68464A13F00103FAD14D4E6B
:10189000022540F2F56440F2664040F299414A4F19
:1018A000966142F20146D56140F23545C2F80042E8
:1018B00042F20124C2F810020120C2F8201211469F
:1018C000C2F8307207F15A47C2F8346207F513774D
:1018D000C2F840523D4E3E4DC2F85072C2F85462BA
:1018E000C2F86052C2F86442C2F8A030C2F8A43014
:1018F000C2F8B0004B692A4ADD07FBD5012300245A
:101900004FF4803011465361C2F8A040C2F8A400E1
:10191000C2F8B0304B69224ADC07FBD50123002412
:101920004FF4003011465361C2F8A040C2F8A40041
:10193000C2F8B0304B691A4AD807FBD501230024FE
:10194000244811465361C2F8A040C2F8A400C2F86E
:10195000B0304B69124ADB07FBD5D2F8003145F6AF
:101960000D5121209BB250618B4239D01A4B00227D
:101970001A605A609A60DA6003B0F0BD00801F40C0
:10198000F9700100F9B00100F9100100F90001003F
:1019900000841F4000C00F40FFFCFF1F000300A099
:1019A00000402A401200FFFFFF37F70000FFF07CE5
:1019B00040000080FF000F836300020000422A40C5
:1019C00000432A40F05AF05A9F041830063201268C
:1019D0003806180A0400030080EE002000802A4028
:1019E00000244FF4802001231146C2F8A040C2F821
:1019F000A400C2F8B0304B693B4ADF07FBD5012396
:101A00004FF40004002011465361C2F8A040C2F810
:101A1000A400C2F8B0304B69334ADE07FBD501237E
:101A20004FF400044FF4803011465361C2F8A040D7
:101A3000C2F8A400C2F8B0304B692B4ADD07FBD5D1
:101A400001234FF400044FF4003011465361C2F8F3
:101A5000A040C2F8A400C2F8B0304B69224ADC07AB
:101A6000FBD501234FF40004204811465361C2F80E
:101A7000A040C2F8A400C2F8B0304B691A4AD80797
:101A8000FBD5D2F8003145F60D5121209BB25061B3
:101A90008B4210D0164B08224FF400041A701549DF
:101AA0000020154A01230090521A1448224400F0E5
:101AB000D3F903B0F0BD4FF400044FF480210123AB
:101AC0001046C2F8A040C2F8A410C2F8B030436972
:101AD0000549DB07FBD50120054B10224FF0807430
:101AE00048611A70DBE700BF00402A400400030091
:101AF00023EE0020000000700000007080EE002047
:101B0000F0B4174A40274FF480314FF480564FF419
:101B100000554FF4404443F24200136913F0020FA2
:101B200006D0946151619061136913F0020FF8D1EE
:101B300013F4005F01D15561EFE713F4805F01D129
:101B40005661EAE7002BE8DA13F4803F01D0916197
:101B5000E3E75B0601D45761DFE7F0BC704700BFE5
:101B600000800D40304B40F6617270B5C3F8202103
:101B700040F2044500F068F92C492D48D1F8802046
:101B80002C4C42F003022C4BC1F88020C0F860516D
:101B9000226813401BB9D0F8A8319A071AD0244BF9
:101BA0004FF00041234A51631A46D3F8401141F0E7
:101BB0000201C3F84011D2F840319B07FBD44FF427
:101BC00000301E491B4B4FF00042086019209A63F9
:101BD00000F046F91A4D0022164B4FF08041144C8C
:101BE0000A26996328461A601146C4F8A8614FF482
:101BF000207200F021F94FF4810640F243114FF4B6
:101C00008000104B104A2E602864C4F85851C4F864
:101C10004811C3F804220D4A4FF40031012311602A
:101C2000C4F8403170BD00BF00800D4000C00F40BF
:101C300000002E4000900D40001C1E008CE200E0D1
:101C40000000002000880020E50300000CE100E017
:101C500008B50E4B1B6E9B0700D4FBBE72B60C4B37
:101C600000200C4AC3F8400103F160430A49A3F580
:101C70005F2311649D46BFF34F8F084A03F5E0438D
:101C800007491268184619609368984700441F4036
:101C900000002E4000C00A40030020001C0020006D
:101CA000000012EB114B1249D86E0A4640F4403046
:101CB00030B4D86640F23765D86EA02440F4407046
:101CC000D8664D648C64936C1B06FCD4094B40F2BF
:101CD0003760A0211A4658649964936C13F080030E
:101CE000FBD1054A137030BC704700BF00C00F40E5
:101CF00000400C4000800C4022EE0020394A0320B6
:101D00003949F3EE095A13689FED386A23F001034D
:101D1000DFED376AF0B4136000241061D1F8E030D1
:101D2000344FD8B2C3F30B211B0D334E07EE100A0C
:101D300005EE101A07EE903A304BB8EEC55A304D0A
:101D4000B8EEC77A3060F8EEE77A29602D4937EEB1
:101D5000466A2D4E77EEC57A2C4877EE666A2C4D92
:101D600037EE657A26EE276AC7ED007A66EEA76A37
:101D7000176867EE277A83ED007AC6EE075A86EE7B
:101D8000876AC7EE876A35EE857AFCEEC77A36EE4B
:101D9000057A17EE903ABCEEC77A47EA035376EE1F
:101DA000857A136017EE103AD2F81071FCEEE77ADC
:101DB00001EA0341394317EE903AC2F81011C3F318
:101DC0000B03D2F810110B43C2F81031136843F023
:101DD000020313603470C0F840510E4B0122F0BC76
:101DE0001A60704780810D4000441F400000AA42E5
:101DF0000000B442A8EC0020A0EC0020A4EC0020DD
:101E00009CEC00200000FF0F40E400E00088002070
:101E10007920000008E100E0F8B500BFF8BC08BC7C
:101E20009E467047000000005FF800F02178030034
:101E30005FF800F00D8100005FF800F0818403007E
:101E40005FF800F0950D00005FF800F00D2600002F
:101E50005FF800F0552200005FF800F0D50B00009D
:101E60005FF800F0650C0000450000006D290000DF
:101E70006D580000C5800000DD8200007D3F01003C
:101E8000998E01002520020049A10200D1B502006F
:041E900071DD0200FE
:101E940001000000160355005300420020005300C7
:101EA40065007200690061006C00000018035400B2
:101EB400650065006E0073007900640075006900B8
:101EC4006E006F000403090409024B00020100C004
:101ED40032080B00020202010009040000010202A0
:101EE4000100052400100105240101010424020657
:101EF40005240600010705820310001009040100EF
:101F0400020A0000000705030240000007058402DE
:101F14004000000009024B00020100C032080B001F
:101F2400020202010009040000010202010005246A
:101F34000010010524010101042402060524060001
:101F4400010705820310000509040100020A0000CC
:101F540000070503020002000705840200020000D6
:101F64000A060002EF020140010000009820006010
:101F74009020006087200060812000607B2000604A
:101F840077200060722000606D2000606620006091
:101F94005C200060542000604B2000604220006000
:101FA4004572724A616E4665624D61724170724D4E
:101FB40061794A756E4A756C4175675365704F63F4
:101FC400744E6F76446563003E20006037200060E5
:101FD40030200060282000601E2000601520006072
:101FE4000E2000600520006045727253756E4D6FBF
:101FF4006E547565576564546875467269536174A7
:102004000053617475726461790046726964617920
:10201400005468757273646179005765646E657302
:102024006461790054756573646179004D6F6E6401
:1020340061790053756E646179004572720044657C
:1020440063656D626572004E6F76656D62657200E0
:102054004F63746F6265720053657074656D626579
:102064007200417567757374004A756C79004A751E
:102074006E65004D617900417072696C004D61724A
:102084006368004665627275617279004A616E75B3
:082094006172790000010100F6
:10209C000000000000000000000000000000000034
:1020AC000000000000000000000000000000000024
:1020BC0010B5054C237833B9044B13B10448AFF376
:1020CC0000800123237010BD708C002000000000E4
:1020DC0084500400084B10B51BB108490848AFF3F5
:1020EC0000800848036803B910BD074B002BFBD0D8
:1020FC00BDE81040184700BF00000000748C0020A1
:10210C0084500400C08A00200000000072B6EFF377
:10211C000583494D6B60EFF30883484C2E464848C5
:10212C004849494A24680068096812682961AC600A
:10213C00E8606A619A69454CAA61DB69444FEB61BE
:10214C0001F0E4FF85ED080A01F09EFF0B234FF030
:10215C00FF32686219462B604A40202102F00103CD
:10216C00013904FB03F383EA5202F7D1BE4202D0D9
:10217C0056F8041FF0E730498A62BFF34F8F354B96
:10218C00354A19601A60BFF34F8FBFF36F8F334A14
:10219C000225334CD36E334943F440533248D36653
:1021AC002560D36923F07F0343F04003D3610B68B0
:1021BC0083423ED82A4A002101202C4E11604FF058
:1021CC00FF33C2F808110C46C2F800611546C2F87C
:1021DC0008010746DFF8C0E0254E26482649274A65
:1021EC00CEF80030336003600B60136001E000F048
:1021FC0041F9D5F80C211A4B002AF8D00134C5F856
:10220C000C714F2CF3D91E4A02241E484FF000418A
:10221C00C0F840415163D3F80C2132B91A491B4A1A
:10222C000A63D3F80C010028FAD0194B194A1A602A
:10223C00FEE700F0F7FDBDE780FF272028ED00E06A
:10224C002CED00E034ED00E038ED00E02083B8ED3B
:10225C00A4FF272070EF00E0A0FF272000C00F4054
:10226C0000400840387D0020803DCD0B009F2400AD
:10227C0084E100E088E100E08CE100E090E100E026
:10228C0000900D4000002E4000800F40F100AD0B7F
:10229C000CED00E00400FA0580E100E0094A08B505
:1022AC00136820B118440849884202D810601846B7
:1022BC0008BD36F015FB0C224FF0FF3302601846B8
:1022CC0008BD00BF087F00200000282000207047B8
:1022DC004FF0FF30704700BF4FF4005300204B60AD
:1022EC00704700BF012070474FF0FF30704700BFB0
:1022FC0030BFFDE70078B0FA80F04009704700BFAE
:10230C0001230370704700BF30BFFDE7836BF0B44F
:10231C001BB1536843F40043536072B6446B5CB317
:10232C001C4B2260D3F8B0410C4215D11A4E3768C1
:10233C0004E03468E41BB4F5166F0BD2D3F84041BB
:10234C0044F48044C3F84041D3F8B851D3F8404129
:10235C006404EED50D4003D0426362B6F0BC704706
:10236C000C4C8260C560D4F8B0311943C4F8B0117C
:10237C00426362B6F0BC7047064D8260C460D5F80B
:10238C00B0311943C5F8B0110263426362B6F0BCB8
:10239C00704700BF00002E40041000E070B50646E8
:1023AC00006B90B10246002403E012680134012A4C
:1023BC000CD0536813F08003F7D032632CB1B36B9D
:1023CC0005689847013C2846F9D170BD33637363A7
:1023DC00F4E700BFF0B5E1B9214C22490020224BB3
:1023EC0001224FF0011580260A601A46A1604E604A
:1023FC00E060C3F8BC51D3F8B0411C4D44F001046B
:10240C008860C3F8B0412860D2F8B031002BFBD102
:10241C00F0BD0904164B144D0126114C41F08001FE
:10242C0000221E60596000F5805CE26400F5005EDD
:10243C00A36400F54057D5F8B01100F580462A4644
:10244C00986041F48031C3F80CC0C3F810E05F61B0
:10245C009E61C5F8B011D2F8B031002BFBD1BCE7AE
:10246C000000002060EE002000002E40B8EB0020A1
:10247C0040EE00202DE9F04FB94C83B0D4F84481E4
:10248C0018F0010FC4F844815ED0D4F8AC31002BA5
:10249C0055D04FF0011BDFF8EC92B24E2546DA46D0
:1024AC00C4F8AC31B06AF26AD4F8403143F400534A
:1024BC00C4F84031D4F840319F04F5D5D5F84031FB
:1024CC0023F40053C5F84031C5F8B4A1D4F8B431A5
:1024DC0013F00113FAD181B240F28167C9F80030D0
:1024EC00B94200F2AD80B1F5D06F80F0DE81B1F56C
:1024FC00817F00F0608100F2E880802900F04E813D
:10250C00822940F0DA8092B202F07F01072900F2B2
:10251C00D48089009448954F0844016810063B709C
:10252C007B7040F10182CA0301D501233B7002216B
:10253C008E48FFF74FFFD4F8AC31002BB0D1884A4E
:10254C00D2F8BC31002B49D118F0400F18D0844B75
:10255C00D3F8AC111A46C3F8AC11D3F8BC11C3F8BC
:10256C00BC11D2F8B0417E4B002CFAD14FF0FF32A7
:10257C00C3F8B421D3F8843100F05CFF7C4B1C60B1
:10258C0018F0807F03D07B4B1B6803B1984718F081
:10259C00007F03D0784B1B6803B1984718F0040FE9
:1025AC0008D06F4BD3F8843113F4007345D0734BC0
:1025BC0001221A706A4BD3F8482112060BD518F079
:1025CC00800F08D06E490A782AB1013AD2B20A704B
:1025DC00002A00F0428203B0BDE8F08F6949C2F8CE
:1025EC00BC310868034240F0E281614A15681D4025
:1025FC00AAD02F0C0FD05B4E4FF0010997FAA7F41D
:10260C00B4FA84F406EBC41009FA04F44030FFF772
:10261C00C5FEA743F2D1ADB2002D95D0514E012786
:10262C0095FAA5F4B4FA84F406EBC41007FA04F492
:10263C00FFF7B4FEA543F3D186E7504A1370B9E710
:10264C0042F22107B94234D067D8B1F5086F00F0D7
:10265C001E81B1F5106F30D1C0F307404A4A4B4987
:10266C0010704B4F4B4A0193C5F8C871C5F8CC118B
:10267C00C5F8D02100F0E0FE474A019B80210120E3
:10268C00B26451601060F364C5F8BCB1D5F8B011F8
:10269C00936041F48032C5F8B0213A4A1360D4F803
:1026AC00B031002BFBD1D4F8AC31002B7FF4F8AE59
:1026BC0045E7110C072900F03B81C4F8C0B1D4F8F0
:1026CC00AC31002B7FF4ECAE39E740F20237B94263
:1026DC0000F0AD80B1F5A06FEFD12F4A802101271A
:1026EC00F364B26417605160C5F8BCB1D5F8B01191
:1026FC00936041F48033C5F8B031D4F8B031002B7D
:10270C00FBD1030C5B0643F08073C5F85431D4F84D
:10271C00AC31002B7FF4C4AE11E742F22123994275
:10272C0079D042F221339942C7D11B4B8022002130
:10273C000120B36418605A60F164C4F8BCB1D4F8D9
:10274C00B021996042F48033C4F8B031D4F8B03180
:10275C00002BFBD1D4F8AC31002B7FF4A1AEEEE60C
:10276C0000002E4000000020C0012E4064EC002030
:10277C00BCEB0020E0ED0020E4ED00202EEE00206C
:10278C002FEE0020B8EB00202DEE0020C800020038
:10279C000200CC000200C80060EE0020B64A022104
:1027AC00104613705370FFF715FED4F8AC31002BA4
:1027BC007FF476AEC3E692B202F07F03072B3FF6AE
:1027CC007CAF12F0800F4FEA8303AC4A4FF000014C
:1027DC004FF001001A44136814BF23F4803323F024
:1027EC00010313608022A64BF164B36418605A6035
:1027FC00C4F8BCB1D4F8B021996042F48033C4F869
:10280C00B031D4F8B031002BFBD1D4F8AC31002B63
:10281C007FF446AE93E692B2002A86D1994BC0F370
:10282C000740994A1968994B116018707DE792B26C
:10283C0002F07F03072B3FF640AF12F0800F4FEAF8
:10284C0083038E4A4FF000014FF001001A441368C5
:10285C0014BF43F4803343F0010313608022884B90
:10286C00F164B36418605A60C4F8BCB1D4F8B021F8
:10287C00996042F48033C4F8B031D4F8B031002BF5
:10288C00FBD1D4F8AC31002B7FF40AAE57E6804A6A
:10289C000121794B127818461A70FFF79BFDD4F87A
:1028AC00AC31002B7FF4FCAD49E67A4B596800291A
:1028BC003FF403AF000C1FFA82FE04E00C3359689E
:1028CC0000293FF4FAAE1F888742F7D15F8877451D
:1028DC00F4D1070A032F00F0BA801B89120C934223
:1028EC0028BF1346B0F5007F00F0A280B0F5E06F72
:1028FC0000F08B80684F1A460193384637F00AFD7A
:10290C00019B27F01F021F44BFF34F8F63490A60DE
:10291C0020329742FAD8BFF34F8FBFF36F8F5E48C8
:10292C001946FFF757FD06E6CB077FF500AEFCE531
:10293C005B4F4FF0010EF3605A495B4B3860C3F8A4
:10294C0000E05960B3605949D5F8B0017A6001F5DF
:10295C00805740EA0E02996001F5005E01F5405087
:10296C0001F58041C5F8B021DF60C3F810E0586173
:10297C009961D4F8B031002BFBD1414A012048F2C7
:10298C008001F36410604FF48030B2645160C5F87C
:10299C00BCB1D5F8B011936041EA0003C5F8B03171
:1029AC00C9F80000D4F8B031002BFBD1C3E53C488A
:1029BC0042F22104002605880E60A54240687FF48F
:1029CC0014AE81B200297FF410AE3849384C03C9DB
:1029DC000D0C86282060A180A5717FF406AE72B61E
:1029EC003448017841F004010170D2F8481108060E
:1029FC0006D441F080018020C2F84401C2F848118D
:102A0C0062B62D4A50211170EFE52C481A46224F20
:102A1C0090F800E02A492B480193BEF1000F08BF43
:102A2C000146384637F076FC0722019B7A7068E73E
:102A3C0022481A462349077821480193002F08BFE2
:102A4C000146154837F066FC134F019B59E7120CF1
:102A5C000B78934228BF134648E716490A7802F0D0
:102A6C00FB020A702AB9D3F8482122F08002C3F87D
:102A7C00482144F045FB00BF64EC0020C0012E400F
:102A8C0060EE00208CED002094EE00202CEE002057
:102A9C002DEE0020A06400200030202070EF00E01C
:102AAC00688C00208000070040EE0020B0EB002076
:102ABC0098EE002028EE00202FEE00202EEE0020B5
:102ACC00CC1E0060181F0060002AA0F102022DE944
:102ADC00F04714BF00274FF00057022A01D9BDE878
:102AEC00F0874FEAC019DFF840A00D4604460AEB08
:102AFC000906002140229846304637F009FD012096
:102B0C0047EA05414AF80910C6F83880B060B8F1B8
:102B1C00000FE4D0034BA0401C6820431860BDE8B4
:102B2C00F08700BFBCEB002000000020002AA0F1C1
:102B3C0002022DE9F04714BF00274FF00057022A7C
:102B4C0001D9BDE8F0874022C501DFF844908846E2
:102B5C001544002104461E4609EB050A504637F081
:102B6C00D7FC012247EA084149F80510CAF8386039
:102B7C00CAF80820002EE4D004F11000034B824068
:102B8C00186802431A60BDE8F08700BFBCEB002058
:102B9C000000002012048160C36142F08002F0B496
:102BAC004260012701F5805601F5005501F54054AE
:102BBC0001F580420760C660056144618261F0BC2A
:102BCC00704700BF831E022B00D97047064B0A4684
:102BDC0030B400F11004012503EBC01005FA04F128
:102BEC00403030BCFFF792BB00000020831E022B4C
:102BFC0000D9704710B4054B01240A4604FA00F1C1
:102C0C0003EBC0105DF8044BFFF780BB0000002005
:102C1C004068704708B503684268BBB17AB1104B85
:102C2C00A3FB0213DB0803EB4303B2EB830303D0D8
:102C3C00D21A4260F02A02D90123184608BD35F099
:102C4C004FFE1C2200230260184608BD044BA3FB58
:102C5C000213DB0803EB4303B2EB8303E8D1E9E790
:102C6C00ABAAAAAA70B5044600283AD019B1B2FA98
:102C7C0082F56D09FDB1206808B1626832B935F092
:102C8C002FFE162300220360104670BD1849A1FBCD
:102C9C000231C90801EB4101B2EB8101EFD1A3680C
:102CAC000BB137F035FC0023012223601046636022
:102CBC00A360E36070BD1E46049B80E80600C36001
:102CCC00FFF7A8FF02460028DED016B901221046F5
:102CDC0070BD94E80500A660294637F019FC012266
:102CEC00D2E735F0FDFD162322460360CCE700BF8A
:102CFC00ABAAAAAA002857D001222DE9F04F85B023
:102D0C0083462A4C2A4D2B4EDDE9028954E8003FBC
:102D1C002868336844E800210029F7D1264FCDE913
:102D2C0002893A68D31A254A4FF47A7E01971268C1
:102D3C000127A3FB02234FF47A72984600238B429F
:102D4C0008BF42452CBFC246F2460EFB00AA54E80F
:102D5C00003F2A68316844E80073002BF7D10198D2
:102D6C000068411A15484FF47A7E00680EFB02F297
:102D7C00A1FB00014FF47A70CAEB020288460021D5
:102D8C00994208BF40452CBF434673461A447245CE
:102D9C0007D3BBF1010B0AF57A7AD8D105B0BDE89F
:102DAC00F08F00F051FDD2E7704700BF90EE00208D
:102DBC008CED002088ED0020041000E0ACEC00202D
:102DCC002DE9F003124A0126124D134C52E8003F34
:102DDC002968206842E80063002BF7D10F4A166877
:102DEC000F4F321A4FF000094FF47A783E684FF4C7
:102DFC007A709945A2FB066708BFB8453C462CBFC4
:102E0C003C46044600FB0140BDE8F003704700BFA0
:102E1C0090EE00208CED002088ED0020041000E0E6
:102E2C00ACEC0020964A974B90422DE9F043964C1F
:102E3C00D3F814E09969E6681CD9944B984240F297
:102E4C001581934B40F22765924F0344924C1A0A1A
:102E5C00A7FB0232D30903EB830303EB830202F2D9
:102E6C00E243AB4228BF2B46A3F54873A4FB0335C2
:102E7C00ED0804E0894DA84294BF06250E25814A31
:102E8C0006F01F07D2F88030AF4243F0C003C2F8FF
:102E9C0080300AD27C4B26F01F061A462E43DE6089
:102EAC001368002BFCDA06F01F071EF0007331D1FB
:102EBC007B4C7C4AD4F810C014460CEA0202A242A5
:102ECC000ABF4FF0C0534FF4805200228EEA030425
:102EDC0014F0605F08D02EF0605E03F06053694C14
:102EEC0043EA0E0EC4F814E081EA020313F4405FC7
:102EFC0008D0644B21F4405111431A469961936CEC
:102F0C001C07FCD44EF0007E5E4AC2F814E0936CB1
:102F1C009906FCD40121644C0A4601FB02F300FB28
:102F2C0003F3A34209D8072A00F29580013201FB72
:102F3C0002F300FB03F3A342F5D95C485C4C184444
:102F4C00A4FB00031B0D6C2B00F28B80352B00F2C5
:102F5C008F80DFF8888136235648DFF844C1564C01
:102F6C00DCF80090B0FBF2F009EA04044445B0FB35
:102F7C00F1F00BD043F400534FF480586446CCF876
:102F8C000080CCF800302368002BFCDADFF8F4C0AA
:102F9C00013ADCF8103003F00703934207D002F03B
:102FAC0007026446CCF81020A36CDB03FCD4013977
:102FBC0089028EEA010313F4E05F0CD0314B2EF43E
:102FCC00E05E01F4E0511A4641EA0E0EC3F814E03B
:102FDC00936C9907FCD4394B39490344DB09A1FBA9
:102FEC000331090B042928BF04214B1E1B028EEA56
:102FFC00030212F4407F07D02EF4407E03F440739A
:10300C00204A43EA0E0353611E4B5C691A4624F0B6
:10301C0000745C61936C9B06FCD42A4B4FF0FF321E
:10302C00294CBD42A3FB00E320604FEA9343274C9D
:10303C00B2FBF3F3B0FBF1F1254A2160136008D227
:10304C00114B26F01F061A462E43DE601368002B28
:10305C00FCDABDE8F08304293FF66FAF01310122A1
:10306C005BE7DFF87C806C231A4876E7122506E7CD
:10307C001948DFF8708000FB03F043EA08086CE79E
:10308C0000A4781F00C00F40000008400046C32376
:10309C0000BA3CDC23B24C001F85EB5100366E01AC
:1030AC0000800D4040300080FFB19F26808D5B007A
:1030BC00819F5E1600B29F267F3001807FD1F00881
:1030CC009F10E50083DE1B43387D0020347D0020FB
:1030DC00ACEC002000643F4D001BB7003620008094
:1030EC006C20008000200080F8B514494FF40037A4
:1030FC00134D034601EB4024124E134A05EB4015C9
:10310C002146176028463288FFF744FD318824F0A9
:10311C001F032144BFF34F8F0C4A13602033994295
:10312C00FBD8BFF34F8FBFF36F8F03202946FFF7F8
:10313C005DFD074B4FF400321A60F8BD00002020F3
:10314C00E08A002004EE00208CE100E05CEF00E05F
:10315C000CE100E0244A43682DE9F041C3F30E432F
:10316C001488C569E41A002C38DD2049204A0B78F4
:10317C001278DBB21F48204E934207D010F8038020
:10318C0036F81870C7F50072944212D90133002238
:10319C001A4F082B26F8154027F81520184E94BF07
:1031AC00DAB213460A703268C55414443460BDE870
:1031BC00F081144B07EB48202246274403EB4521B2
:1031CC00184437F0A7F80E4A284626F818701368EA
:1031DC001C441460BDE8F041FFF786BF2846BDE8EB
:1031EC00F041FFF781BF00BF04EE002026EE002067
:1031FC0027EE002090EC002070EC002080EC0020EA
:10320C006CEC0020000020201E4B1A785AB902F0FA
:10321C00FF031D4A127832B12DE9F0411B4D2A886B
:10322C0012B9BDE8F0817047194EC2F50068194F0C
:10323C0031784246184C07EB411704EBC124384651
:10324C002146FFF7A7FC08EB040224F01F01BFF393
:10325C004F8F124B196020318A42FBD8BFF34F8F2E
:10326C00BFF36F8F04203946FFF7ACFC3378084A64
:10327C000133DBB2032B88BF0023137000232B8098
:10328C00BDE8F0812BEE00202DEE002006EE002094
:10329C002AEE0020E08B00200010202070EF00E0D0
:1032AC002DE9F04F85B002900091002900F0AB8021
:1032BC000023564DDFF87481DFF860A1544FDFF81E
:1032CC0070B101930122534B2A701C78524AB8F802
:1032DC00003002EB441923BB1E461C464846FFF740
:1032EC0097FC10F080007ED0BFF34F8F00229AF82D
:1032FC0000304A492A7004B93E68002B5AD13B6809
:10330C009B1B782B79D89BF80030002B52D000F007
:10331C009BFA0124B8F800302C70002BDED03D4A0B
:10332C0014781A46C3F50060E402009E3C49204420
:10333C009642084442D30C44029936F0EBFF00232A
:10334C0021464FF400624846FFF724FC24F01F038B
:10335C0004F50064BFF34F8F324A136020339C4254
:10336C00FAD8BFF34F8FBFF36F8F04204946FFF796
:10337C0029FC284B274A1B78009801332A49DBB2D9
:10338C00032B88BF002313700022B8F80030A8F874
:10339C000020C01A0090019818440190029818441B
:1033AC000290C1F88420BFF34F8F00232B70009B39
:1033BC00002B87D1019805B0BDE8F08F009C0393DA
:1033CC00019B224602992344019336F0A3FF039BF1
:1033DC004FF04041144A00201B1B0090A8F800300D
:1033EC00C2F88410DFE74FF400630A4A8AF8000041
:1033FC0014781A46A8F8003096E7012301980B7050
:10340C0005B0BDE8F08F0098D5E700BF2BEE00208B
:10341C008CED00202AEE0020E08B002029EE00200D
:10342C000010202070EF00E000002E4006EE00207F
:10343C002DEE0020704700BF314B2DE9F0411B7879
:10344C00304F002B54D04FF40073DFF8EC803B80EE
:10345C00A8F80030002180222B480D462B4E37F067
:10346C0057F82B4C2B4B29464FF480722A48257069
:10347C002C461D8037F04CF835602B4675602A467B
:10348C00B560F5602549264E2648DFF8B0E00D7092
:10349C0010210570022035607560B560F560CEF8BE
:1034AC000050FFF743FBB8F800102A461E4B0320D0
:1034BC00FFF70AFB2B46398801220420FFF736FB65
:1034CC0020460134FFF710FE082CF9D1174B4A2285
:1034DC0017480021174C0460C3F88410C3F88020EF
:1034EC00D3F8482142F08072C3F84821BDE8F0813E
:1034FC004023DFF844803B80A8F80030AAE700BFE7
:10350C002EEE002008EE0020E08B002070EC002056
:10351C002AEE002006EE0020E08A002026EE002095
:10352C0080EC002027EE0020C510000000002E408B
:10353C00E0ED00207911000004EE00206CEC00207E
:10354C00314B4FF400322DE9F04F1A6083B02F4B02
:10355C0089461C78002953D02D4BE4B21B789C4231
:10356C0050D082460027DFF8C0B00134294BC7EB9E
:10357C0009085046092C0193274B28BF00241D5DD8
:10358C00244B33F815E0254B0EEB452133F8156031
:10359C00234BCEEB06061944B0453246374419D2BC
:1035AC000EEB45214246194436F0B4FE019BDBF884
:1035BC000010484633F81520C8EB01019044CBF8B5
:1035CC00001023F81580174B4FF400321A6003B02B
:1035DC00BDE8F08F36F09EFEDBF80020E3B2284603
:1035EC00921BB244CBF80020084A1370FFF77CFD05
:1035FC00B94503D9064B1B789C42B6D13846E2E755
:10360C000846E0E70020DEE78CE100E027EE002032
:10361C0026EE002080EC002090EC002070EC0020C6
:10362C00000020200CE100E06CEC00200B4B0C4A5D
:10363C001B781278DBB293420DD0013309480A4A49
:10364C00092B0A4928BF0023C35C31F8131002EB85
:10365C004323585C70474FF0FF30704727EE002033
:10366C0026EE002090EC00200000202080EC0020B2
:10367C00014B1868704700BF6CEC00202DE9F84F27
:10368C00154E164D34782B78E4B29C4221D0DFF8DD
:10369C005490DFF854B0DFF85480114F0134082CEB
:1036AC005FFA84FA01D90024A24619F80410DBF859
:1036BC00002038F81130084637F811105B1AD31A6D
:1036CC00CBF80030FFF710FD86F800A02B789C4259
:1036DC00E4D1BDE8F88F00BF27EE002026EE0020D5
:1036EC0080EC002090EC00206CEC002070EC0020B2
:1036FC0000B583B001210DF10700FFF721FF20B1C8
:10370C009DF8070003B05DF804FB4FF0FF30F9E7BC
:10371C00094B00B583B01B788DF8070023B903F073
:10372C00FF0003B05DF804FB01210DF10700FFF76A
:10373C00B7FD03B05DF804FB2DEE0020044B1B78A5
:10374C0003F0FF020BB1FFF7ABBD1046704700BF93
:10375C002DEE00202DE9F0410024DFF844800123F8
:10376C000D4D27460D4E88F800303378284620350D
:10377C00A34204F1010405D0FFF74AFA030658BF2F
:10378C0007F50067042CF0D1BFF34F8F00233846A8
:10379C0088F80030BDE8F081E08B00202AEE002094
:1037AC002BEE00202DE9F843204B1B7813B1204D54
:1037BC002A880AB9BDE8F883DFF88880C2F5006969
:1037CC001C4E4FF0010E98F800104A461A4C00237C
:1037DC0006EB4116194F04EBC124304687F800E084
:1037EC002146FFF7D7F909EB040224F01F01BFF3C0
:1037FC004F8F134B196020318A42FBD8BFF34F8F88
:10380C00BFF36F8F04203146FFF7DCF998F80030D6
:10381C000C4A0133DBB2032B88BF00231370002347
:10382C002B80BFF34F8F3B70BDE8F8832DEE00204B
:10383C0006EE0020E08B0020001020202BEE002054
:10384C0070EF00E02AEE00202DE9F843324E337879
:10385C0093B1324F3A787AB90122D9073A7037D4FA
:10386C009A0719D400225B073A7005D52C4B1A68BD
:10387C0012B1EFF305820AB1BDE8F883EFF31080C3
:10388C0072B61A681AB1274C217800292FD000285B
:10389C00F2D162B6BDE8F883DFF8948098F8002086
:1038AC00002ADFD00024DFF88C9005E0013498F872
:1038BC000030E4B2A34213D959F824502B6828469F
:1038CC001B6998470028F1D06B699B689847EDE716
:1038DC00FFF7CEFED0B9144B1B781BB93378BFE77A
:1038EC003378BFE7337803F0FE033370B8E7012673
:1038FC00556926701D6065B1A96100B962B60025D5
:10390C0093681046557798472570B5E700F0BAFBD9
:10391C00E1E7064B1D60F0E70585002020EE002056
:10392C00ECDE00201CEE0020941E0060F8DE00206F
:10393C001DEE0020FCDE002070B5EFF3108172B696
:10394C000C4C23688BB10C4E00255A6922607AB15D
:10395C00956101B962B65D7718469B689847EFF39D
:10396C00108172B62368002BEFD101B962B670BD1D
:10397C003260EEE7F4DE0020F0DE0020FFF7DCBF63
:10398C00044A054B1168054A19601368013313602A
:10399C00704700BF041000E088ED00208CED002083
:1039AC00B0F84630B0F848209BB292B2934202D2A3
:1039BC00501EC01A7047406B01381044C01A704733
:1039CC0072B6B0F84A30B0F84C2099B293B2994222
:1039DC0001D2826B11440269CB1AD06AC0F3026027
:1039EC00184462B6704700BFB0F84A20B0F84C30AB
:1039FC0092B29BB29A4270B428D00133846BA3422A
:103A0C0017D2016B9EB28B4218D2016AC95CC9B243
:103A1C00856DA0F84C60B5B19A4238BF1219D31A13
:103A2C00C26B93420FD8C36D0846C5F8883070BC82
:103A3C0070470026016B33468B42E6D3591A456A10
:103A4C00695CC9B2E4E7084670BC704772B6B0F85E
:103A5C004A1089B28A4202D062B60A46CDE703699F
:103A6C00DA6A12F0E06F04D0D869C0F3090062B6CC
:103A7C00DDE74FF0FF30FAE790F8443043B110B572
:103A8C000446FFF7E1FE94F84430002BF9D110BD49
:103A9C00704700BFB0F84A20B0F84C3092B29BB2DD
:103AAC009A4210D00133816B026B8B4228BF0023EA
:103ABC00934204D39B1A426AD05CC0B27047026A2C
:103ACC00D05CC0B2704772B6B0F84A1089B28A4264
:103ADC0001D062B6E6E70369DA6A12F0E06F11D042
:103AEC00DB690021026AC3F3090310B40124A0F8B6
:103AFC004A40A0F84C10D9B2517062B618465DF825
:103B0C00044B70474FF0FF3362B61846704700BF46
:103B1C00EFF31380B8B9EFF310834BB9EFF30582D1
:103B2C003AB94FF48073EFF3118050B1984208D238
:103B3C0070470F2AF7D9054BD35CEFF3118000289F
:103B4C00F4D1184670474FF0FF30F1E7F0E300E096
:103B5C0007EE901A9FEDA47A0421B6EE005AF8EE07
:103B6C00677A9FEDA26A2DE9F043C7EE275A0E46FD
:103B7C00012541F6FF741DE0A342A8BF234607EEC2
:103B8C00903AF8EEE76A76EEC76AC6EE877AF5EEFB
:103B9C00C07AF1EE10FA48BFF1EE677AF4EEC67A0D
:103BAC00F1EE10FA03D8B0EE676A0E461D460131ED
:103BBC00212911D007EE901AF8EEE77A85EEA77A54
:103BCC0077EE057AFDEEE77A17EE903A002BD3DC10
:103BDC00F7EE006A0123D6E70021436902F4007472
:103BEC00D0F83890B3F85C70B3F85E808C42A0F8D3
:103BFC004A10C7EB0907A0F84C1008BF8C46A0F878
:103C0C00461018BF4FF0010CA0F8481080F8441073
:103C1C00D3F810E05969DEF80040C76344EA0104A8
:103C2C00C8EB09010164CEF8004080F81AC040F0DE
:103C3C00CE80047E6E4903EB04146E4F247E01EBA0
:103C4C000414A4682760047E03EB0414277ED4F8C4
:103C5C001CE001EB07146468C4F800E0047E03EB7D
:103C6C000414276A0FB1646A3C60447ED92703EBC5
:103C7C00041494F8384001EB0414A4682760447EC3
:103C8C0003EB041494F83870E46B01EB07114968EA
:103C9C000C60417E03EB01110C6C0CB1496C216082
:103CAC00711E5C785F68082E4FEA01614FF00006C8
:103CBC00D8BF4FF4003E04F1100401F0F853C8BF14
:103CCC00B64601691D434C4B4EEA05050D61CE60AD
:103CDC0043F824704369012448495D7893F85A30BD
:103CEC00474E6B54456901696B7803F01F075B11F4
:103CFC00BC4046F823408B6A9B0803F01C030F2B37
:103D0C0060D85B1003F00303DCB28B6A9B0003F0FA
:103D1C001C030F2B53D8DB0303F44033234302F073
:103D2C000304CB628B6A43F088038B6253074BD43A
:103D3C0044F4701302F00F04042C847E08BF43F08B
:103D4C008043970648BF43F080530CB143F0A00367
:103D5C0016078B6103D50B6943F000530B614B695C
:103D6C00D40623F0805348BF43F080534B61D305F6
:103D7C0003D50B6943F400530B61EB681B78E3B973
:103D8C00204E357865B3204C2368834226D0691EBB
:103D9C002346C9B204EB810103E053F8042F90428F
:103DAC001AD08B42F9D16B1CDBB2184A33701378E2
:103DBC0044F8250043F002031370BDE8F0834FF480
:103DCC004033ABE70324A0E7114B2343B2E7447E17
:103DDC004FF2D90706494AE7BDE8F083BDE8F08306
:103DEC000123094CE1E700BF001BB74BEC78AD6039
:103DFC002440002038F001000088002000E400E09E
:103E0C0000E100E01DEE0020FCDE00200585002016
:103E1C0010003C0038B504460D4694F84430002B95
:103E2C00FBD12846012100F0F9FB054B2D015A1955
:103E3C005B59D26823656265C3F8882038BD00BF22
:103E4C0024400020F8B5036D04460E4613B1426DB4
:103E5C00C3F88420A37E33B172B62269936943F010
:103E6C000053936162B6B4F84650636BADB2013542
:103E7C009D4249D2AFB2B4F848309BB2AB4220D18C
:103E8C00FFF746FE6369B3F85A3098422DDC21697E
:103E9C004B691B02EFD5B4F84830626B9BB201330F
:103EAC00934227D2E26A98B2934228D2E269D35C59
:103EBC00DBB2CB61A4F84800B4F848309BB2AB42FB
:103ECC00DED0E36A9D4222D3ED1AF6B2A36A5E55A8
:103EDC0072B60120226984F84400A4F846709369F4
:103EEC0043F40003936162B6F8BDFF28C3DDFFF70E
:103EFC00ABFCC0E70020E26A03469342D6D39B1A80
:103F0C00A26AD35CDBB2D4E700273D46B3E7F6B236
:103F1C00E3695E55DCE700BFFFF794BF02695369A4
:103F2C0013F4401FF0B542D0D36AC3F30265002DE1
:103F3C003AD0B0F84A70B0F84CE0BFB21FFA8EFE1F
:103F4C0006E0026AD65402696B1E13F0FF051AD004
:103F5C00D1697B1C866BB0F84C40C1F30901B342AC
:103F6C0028BF0023A4B2A342EED0026BCEB21F46F0
:103F7C009342A3EB0204E4D3436A1E556B1E026901
:103F8C0013F0FF05E4D1BBB2816DA0F84A3059B1F2
:103F9C00774573D2836BCEEB03031F44036C9F42B4
:103FAC0002D3C36DC1F884305369DC0255D4D2F806
:103FBC0018E01EF4000F02D0536919021CD41EF431
:103FCC00800F48D053695B0246D50021036D80F801
:103FDC00441013B1416DC3F88810837E3BB172B6A7
:103FEC000269936923F00053936162B60269936985
:103FFC0023F480039361F0BDB0F84650B0F848301C
:10400C00ADB29BB29D422DD0466BC46A0AE0C16929
:10401C00C95CC9B2D161D16AC1F30221032912D89A
:10402C00AB421FD001339E4298BF0023A342A3EBA7
:10403C000401ECD3876A795CC9B2D161D16AC1F34E
:10404C0002210329ECD999B2AB42A0F848100CD04C
:10405C001EF4800FB6D1F0BDF0BD536943F480134C
:10406C005361A4E7ADB2A0F84850936923F4000360
:10407C009361936943F480039361A0E7CEEB070748
:10408C008CE700BF704700BF0A4B30B4586A1C461F
:10409C00996A626AA36A994208BF9042104619460F
:1040AC000CBF01250025002DF3D0D90B30BC41EA03
:1040BC004240704700400D40124B9A68194622F05E
:1040CC0001129A608B680F4ADB07FBD4936B114685
:1040DC0023F0010393638B6B0A4ADB07FBD4C30306
:1040EC001146400C53651065936B43F001039363C9
:1040FC008B6B044ADB07FBD5936843F00113936089
:10410C00704700BF00400D40FEF700B812490B6825
:10411C00114A5B07FBD513681049C3F30B23104AF4
:10412C0007EE903A0B6892ED006AB8EEE77A07EE6C
:10413C00903A0C4AF8EE677A0B4BD2ED006A77EEA8
:10414C00677A93ED007AB8EE477A67EE867A87EE57
:10415C00A60A37EE400A704780810D409CEC002087
:10416C00A4EC0020A8EC0020A0EC0020F0B501EBA2
:10417C004106294C012500EB461694F800C005FABF
:10418C0001F1F4891FFA81FEB0F88851A4B24FEA0C
:10419C000E1704FB0333ADB207F0F00723FA0CF350
:1041AC003D43A342A0F8885128BF2346012A22D0C0
:1041BC0015D3022A08D001F00F01B0F888319BB258
:1041CC001943A0F88811F0BD9BB201F00F01F383E5
:1041DC00B0F880319BB21F43A0F88071EDE7E31A71
:1041EC0001F00F019BB27381B0F880319BB20B438D
:1041FC00A0F88031E1E79BB201F00F014FEA0E2EDF
:10420C00F382B0F880310EF4706E9BB24EEA030E5E
:10421C00A0F880E1D1E700BF0485002036280CD837
:10422C00294AF8B5044600B212F8206002EB80056A
:10423C00012E03D0022E16D0F8BD70476A78C2F357
:10424C000113032B3AD0214850F823008BB202F013
:10425C000301AA78FFF78AFF1D48EA7800EB0410E7
:10426C0043681A60F8BD6E78C6F30113032B27D090
:10427C00184A52F823E006F00306174B89B20EEBEE
:10428C00461793F800C07601FA880EEB06037644C5
:10429C0092B2188AC2F1011212FA80F2501E00FB7F
:1042AC0001F323FA0CF3984298BF931ED21A9BB2D7
:1042BC00C2F1010292B2FA803382CDE70748C5E71A
:1042CC00DFF81CE0D7E700BF58440020680B002043
:1042DC0024400020740B00200485002000803E4008
:1042EC0000801E40A4484FF00F0CA44B826F42F488
:1042FC007F02F0B582670025D0F880204FF470461D
:10430C009F4C4FF4604E29464FF4806714432A4665
:10431C00C0F88040A3F88C6148F2B826A3F88EC18F
:10432C00A3F89051B3F8880180B240F0F000A3F8E4
:10433C00880101EB4100914B0131002540011C46E5
:10434C0004290344A3F804E0DF805A841A865A80B7
:10435C005A81DE815A82DA825A83DA83E9D1B4F83F
:10436C0088014FF00F0C874B4FF4704680B22946F2
:10437C004FF460472A4640EA0C004FF4806EA4F8D4
:10438C008801B4F8880180B240F47060A4F8880108
:10439C00A3F88C6148F2B826A3F88EC1A3F890510B
:1043AC00B3F8880180B240F0F000A3F8880101EB6B
:1043BC004100744B0131002540011C460429034483
:1043CC009F80A3F806E05A841A865A805A81DE81AF
:1043DC005A82DA825A83DA83E9D1B4F888014FF031
:1043EC000F0C694B4FF4704680B229464FF460476E
:1043FC002A4640EA0C004FF4806EA4F88801B4F809
:10440C00880180B240F47060A4F88801A3F88C6134
:10441C0048F2B826A3F88EC1A3F89051B3F88801DE
:10442C0080B240F0F000A3F8880101EB4100564B3C
:10443C000131002540011C46042903449F80A3F848
:10444C0006E05A841A865A805A81DE815A82DA82B0
:10445C005A83DA83E9D1B4F888014FF00F0C4B4B37
:10446C004FF4704780B229464FF460462A4640EA22
:10447C000C004FF4806EA4F88801B4F8880180B267
:10448C0040F47060A4F88801A3F88C7148F2B82746
:10449C00A3F88EC1A3F89051B3F8880180B240F014
:1044AC00F000A3F8880101EB4100384B01314001C9
:1044BC001C46042903449E80A3F806E05A841A86FD
:1044CC005A805A81DF815A82DA825A83DA83EAD19E
:1044DC00B4F888310F27002241F201069BB245F651
:1044EC00C05E114643F226053B43A4F88831B4F86C
:1044FC0088319BB243F47063A4F888315001244B8B
:10450C0001320344042A99815981DF819E82A3F8E8
:10451C0006E0198019829D81F0D100220F2741F20B
:10452C00010645F6C055114643F226045001194BBD
:10453C0001320344042A99815981DF819E82DD80F6
:10454C00198019829C81F1D100220F2741F20106BA
:10455C0045F6C055114643F2260450010E4B01326C
:10456C000344042A99815981DF819E82DD80198060
:10457C0019829C81F1D1F0BD00C00F4000C03D40BC
:10458C00000003FC00003E4000403E4000803E40E6
:10459C0000C01D4000001E4000401E4000010F4B9B
:1045AC001A181B5810B4D0685C68044205D059B175
:1045BC00C3F884005DF8044B7047936849B9084A06
:1045CC005DF8044B1A607047C3F888005DF8044B23
:1045DC007047044A5DF8044B1A6070472440002071
:1045EC003830010038F001000001054B1A58191839
:1045FC009268CB681A4214BF01200020704700BF9C
:10460C0024400020362801D8FFF7C8BF704700BFF0
:10461C00362801D8FFF7E8BF0020704736281CD891
:10462C0000011A4A012902EB0003105810B415D0EE
:10463C00042913D0DC68426822EA040242609A68BA
:10464C00E9B102291ED003295B685DF8044B0CBF4D
:10465C000F491049116015221A607047DA68012958
:10466C00446842EA040242609A6808D040F6380175
:10467C0011605B6815225DF8044B1A607047382195
:10468C001160F6E704491160F3E700BF24400020F5
:10469C00383001003800010038F00100124A134B89
:1046AC00D2F8200220F07F40984210B584B002D896
:1046BC0000EB800040000E4C01A90A2200F076F9B4
:1046CC0001A90023204611F8012B01333AB10A2B22
:1046DC0020F8022FF7D11623237004B010BD5B0015
:1046EC00DBB2237004B010BD00441F407F969800CD
:1046FC00EC840020F8B50E4671B17AB10746144629
:10470C0000253B68384616F8011B1B689847013C8E
:10471C000544F6D12846F8BD0846F8BD1046F8BD4C
:10472C00036810B514465B689847204610BD00BF5F
:10473C000EB400B582B003AB53F8041B1A460193B8
:10474C003BF0FCFC02B05DF804EB03B0704700BF1B
:10475C0010B50446006835F029FA204610BD00BF9C
:10476C0038B543688B4201D3012038BD0D46044651
:10477C000131006835F068FF0028F6D0A36884E8A2
:10478C002100002BF0D10370EEE700BFF8B5044612
:10479C00154632B9036803B11A700023A360204692
:1047AC00F8BD0E461146FFF7DBFF074648B92068F7
:1047BC0010B135F0FBF92760002320466360A3603D
:1047CC00F8BDA5603146206836F092FCE7E700BFE3
:1047DC0038B500230446036043608360037341B122
:1047EC000D46084637F074FD024629462046FFF771
:1047FC00CDFF204638BD00BF0023884210B50446CB
:10480C00036043608360037303D08A680968FFF711
:10481C00BDFF204610BD00BF38B50C460546084606
:10482C0037F056FD214602462846BDE83840FFF7D2
:10483C00ADBF00BF814203D08A680968FFF7A6BFED
:10484C00704700BF036853B1096811B1184636F0C0
:10485C00E3BA806810B118787047184670470B6837
:10486C00002BFAD088680028F8D01878404270479E
:10487C0008B582688B689A4201D0002008BDFFF70A
:10488C00E1FFB0FA80F0400908BD00BF826808B5AE
:10489C000B462AB971B11878B0FA80F0400908BDFE
:1048AC0031B1006836F0B8FAB0FA80F0400908BDB2
:1048BC000368F0E7012008BD08B5FFF7C3FFC00F80
:1048CC0008BD00BFF8B5836893420ED90368541C29
:1048DC00002205461F5D1A550668304637F0EAFD82
:1048EC00375510B12B68C01AF8BD4FF0FF30F8BD2A
:1048FC008268013AFFF7E6BF9A42F8B504460E46C5
:10490C0002D911461A460B460021A1602173B068EA
:10491C002160824261600ED8834228BF03461D4647
:10492C0033685F5D59553368991806D02046FFF7F8
:10493C0073FF33685F552046F8BDA1605F55FAE7F9
:10494C0010B504468B68FFF7D7FF204610BD00BF9B
:10495C002DE9F04106680746EEB18468DCB13546B6
:10496C0000E04546287805F1010834F0C9FF00281D
:10497C00F7D1013C344401E028B1013C207834F0FB
:10498C00BFFFAC42F8D2621CB542A2EB0502BA6082
:10499C0004D80023B3543846BDE8F081304629468C
:1049AC0035F0B8FC3E68BA68F3E700BFF0B44E1EB1
:1049BC000025374600E00135B0FBF2F302FB130093
:1049CC0000F13704092800F13000E4B298BFC4B2FA
:1049DC00184607F8014F002BEDD14A1953704DB111
:1049EC00013316F8014F1778E81A3770834202F832
:1049FC000149F5DB0846F0BC704700BF31F0A8BA9E
:104A0C0000EB4003074A0848134493F83420027023
:104A1C0093F8352093F83630427083700023C370BE
:104A2C00704700BF701F006012EE00203C234FF453
:104A3C00C87C2DE9F041B0FBF3F403FB140240F207
:104A4C006D184FF0640E0A70B4FBF3F203FB1243C3
:104A5C0018244B704FF46163B0FBF3F3B3FBF4F227
:104A6C0004FB1233072200248B70384BB0FBF3F09D
:104A7C00031DB3FBF2F2C2EBC2029B1A22460133B6
:104A8C00CB70E6B206F2B27313F003070ED193FBB0
:104A9C00FEF50EFB153565B993FBFCF50CFB1535D6
:104AAC00002D14BF45464FF4B77504E040F26D1568
:104ABC0001E04FF4B7752A4401349042E1D28E7173
:104ACC0097B9642593FBF5F405FB14347CB94FF4CA
:104ADC00C87593FBF5F405FB1434002C40F26D14EF
:104AEC0008BF4FF4B77404E040F26D1401E04FF4CA
:104AFC00B774121B64264FF4C874DFF854E0801AA4
:104B0C0093FBF6F206FB123693FBF4F204FB123322
:104B1C000022012AD5B206D147B94EB9002B14BFD9
:104B2C001C241D2405E012F80E4002E01C2400E0B9
:104B3C001D24844204D80132001B0C2AE9D11546ED
:104B4C00013501304D710871BDE8F08180510100D3
:104B5C006C65002038B5054C05462368834203D0AC
:104B6C000349FFF763FF256038BD00BF74D00020F8
:104B7C000AEE002008B5FFF7EDFF024B987900F222
:104B8C00B27008BD0AEE0020014B00211868704776
:104B9C008CED0020074B02211A68074A1060074A67
:104BAC0012681044064A1060064A11701A68064BC7
:104BBC001A6070478CED002070D000200C7E002015
:104BCC0060D0002011EE00205C8D0020F8B5194B50
:104BDC000025194C1A682168DFF870E0DEF8000037
:104BEC0002F57A774E1C801AB0F57A7F03D33146E2
:104BFC003A460125F2E70DB11A6021600F4D23688A
:104C0C002A689A4213D80E4B1B6883B1984710B18F
:104C1C00FFF7C0FF0BE0084B1A680A4B1B681344E4
:104C2C00094A2B601378003318BF012313702068D6
:104C3C00F8BD00BF5C8D002070D0002060D000203B
:104C4C00E0EB00200C7E002011EE00208CED00200B
:104C5C0008B5FFF7BBFFFFF77DFF014B987808BD48
:104C6C000AEE002008B5FFF7B1FFFFF773FF014B09
:104C7C00587808BD0AEE002008B5FFF7A7FFFFF72C
:104C8C0069FF014B187808BD0AEE002008B5FFF744
:104C9C009DFFFFF75FFF014B187908BD0AEE00205E
:104CAC0008B5FFF793FFFFF755FF014B587908BD87
:104CBC000AEE002008B5FFF789FFBDE80840FFF7B2
:104CCC0059BF0000034B1860034B1A68034B1A6062
:104CDC00FFF77CBFE0EB002070D0002060D00020FC
:104CEC00034B1860034B1B681844034B1860704748
:104CFC000C7E002070D0002060D0002090F828108E
:104D0C000279036839B112B990F8241000E000213F
:104D1C00D8B2FFF783BA02B90121D8B2FFF772BC3F
:104D2C0090F82820017903682AB1426A01B151B286
:104D3C00D8B2FFF773BA01B10121D8B2FFF762BC48
:104D4C00F8B50D461E4600210A2304461746436259
:104D5C008160C1600161416181610177016280F80C
:104D6C002810C1620121E8B2FFF758FC20462771D8
:104D7C00FFF7D6FF256084F828602046F8BD70B593
:104D8C00044680690E46154608B105F07FFEB5F164
:104D9C00FE5F94BFA8004FF0FF3005F04BFE0023E0
:104DAC00A061AB4205DA56F8232040F823200133EA
:104DBC00F7E701232561E36070BD0000C36A9342ED
:104DCC0070B5044613DA0B4D51F8231082682E6827
:104DDC000A44B2420DD22A68DB07826002D4FFF784
:104DEC009FFF01E0FFF78AFFE36A013300E0002335
:104DFC00E36270BD8CED00201F4B07EE901A8268A9
:104E0C00196801328A4210B5044626D21A68F8EEA7
:104E1C00E77AD3ED006A8260F8EE666A9FED100BBC
:104E2C0086EEA77AB7EEC77A27EE000B31F0E4F9DD
:104E3C0031F032FA20789FED0C7BBDE8104030EE5B
:104E4C00470B9FED0B7B20EE070BB7EEC00BFDEE77
:104E5C00C07A17EE901AFFF7E1B910BDAFF30080DE
:104E6C00182D4454FB2109404BEEEA34568BD73FA6
:104E7C000000000000005B408CED00200D4A8368B0
:104E8C00116864338B4210B5044612D21368FF21AB
:104E9C008360502031F0E0F807EE900A2078F8EEAD
:104EAC00E77ABDE81040FDEEE77A17EE901AFFF7AF
:104EBC00B5B910BD8CED002038B50A4A044683689C
:104ECC0015681944A9420BD213688360037F1BB980
:104EDC00FFF714FF012302E0FFF722FF00232377E3
:104EEC0038BD00BF8CED002070B504460C4D084653
:104EFC00A668236A296833448B4210D22B6811466A
:104F0C00A36031F0A9F8237F206220461BB9FFF77C
:104F1C00F5FE012302E0FFF703FF0023237770BDAA
:104F2C008CED0020C368013B042B14D8DFE803F0A0
:104F3C0003070A0C0F0002698169FFF73FBF016983
:104F4C00FFF75ABFFFF79ABF0169FFF7B5BF426978
:104F5C000169FFF7C9BF70472DE9F84F00270446D8
:104F6C001646994601F1FF3A1760D6F800B0D345C2
:104F7C0030DA237873B325462C4615F8018BB8F13B
:104F8C00000F27D0404634F0BBFC0028F4D1B8F118
:104F9C00270F08BF2C4649F82B4009D1254614F899
:104FAC00013B53B1272BF9D107E034F0A9FC20B910
:104FBC00254614F8010B0028F7D12B781BB16C1C7B
:104FCC002F7001D106E02C4633680133336023780F
:104FDC00002BCAD133680022204649F82320BDE8B3
:104FEC00F88F012A08BF01600020704705F0AAB9AC
:104FFC00037823F07F0319430170704708B502460C
:10500C0028B10C210830FFF7F3FF82ED000B08BD2F
:10501C0010B50A46044639B108215018FFF7E8FFCD
:10502C000021E0B2C2E9000110BD00007FB51846B6
:10503C0013681A680B68FF2B03D11149FFF778FB33
:10504C001BE0104B10491C6894FBF1F301FB13415E
:10505C000E4C91FBF4F504FB15144EF6602194FBF9
:10506C00F1F601FB16414FF47A7491FBF4F18DE8E3
:10507C00600002910649FFF75BFB012004B070BD94
:10508C00CD6500208CED0020005C260580EE3600FE
:10509C0001660020012A08BF016000207047012A28
:1050AC0008BF016000207047012A08BF0160002082
:1050BC007047012A08BF016000207047012A08BF11
:1050CC00016000207047012A08BF01600020704772
:1050DC00012A08BF016000207047012A08BF016047
:1050EC0000207047012A08BF016000207047012A88
:1050FC0008BF016000207047012A08BF0160002032
:10510C007047012A08BF016000207047012A08BFC0
:10511C00016000207047012A08BF01600020704721
:10512C00012A08BF016000207047012A08BF0160F6
:10513C0000207047012A08BF016000207047012A37
:10514C0008BF016000207047012A08BF01600020E1
:10515C007047012A08BF016000207047012A08BF70
:10516C00016000207047012A08BF016000207047D1
:10517C00012A08BF016000207047012A08BF0160A6
:10518C0000207047012A08BF016000207047012AE7
:10519C0008BF01600020704770B5044608460D46F4
:1051AC0037F096F823680246294620465B68BDE82E
:1051BC00704018472DE9F0411C460B68FF2B04D0BA
:1051CC000025DFF874802F4606E013682046184946
:1051DC001A68FFF7ADFA28E0D8F800201369916837
:1051EC00BFF35F8F8B421BD0D9B202EB81018E696A
:1051FC000133BFF35F8F30460135136137F068F828
:10520C003044314600F8017C2046FFF7C5FF236887
:10521C000D2120461B689847304634F0C7FCDBE76D
:10522C001DB904492046FFF7B7FF0120BDE8F08106
:10523C005F660020DF66002030EC0020836810B52C
:10524C00044613B1032201469847204610BD10B501
:10525C000446FFF7F3FF204610BD00002DE9F04790
:10526C000E4688B00446244930469046FFF760FA53
:10527C00002104A8DFF88CA0FFF7AAFAA5684FF06C
:10528C00FF09EC680435A5421ED004F1100104A8F6
:10529C00FFF7D0FA194904A8FFF7F8FA78B9D8F84B
:1052AC000830DBB104A94046FFF7E2FA38B115E04B
:1052BC00334603AA02A904F12000E76AB847204646
:1052CC0006F074FF0446DEE70D493046FFF730FA6E
:1052DC0004A8FFF73DFA08B0BDE8F087049BCDF8B1
:1052EC000890002B08BF5346019301AB0393A36AAC
:1052FC00002BDDD127F0A0F8976600209B660020DC
:10530C00A0660020CC65002070B58CB00E681468C7
:10531C000021202204A81D4635F0FAF8022E03D1F4
:10532C00616804A835F0E4FE084B04A968461C68C3
:10533C00FFF74EFA6A4629462046FFF78FFF68466C
:10534C00FFF706FA01200CB070BD00BF4CEC00203A
:10535C00B0F90A3013B100EB0310704718467047D0
:10536C004B688A6810339A4210B503D201230B7430
:10537C00002010BDA2F110038B60002BF8D0416807
:10538C0019B15C1A24114C8100E0036000214360C8
:10539C00184622F8061C02F8081C42F8041C10BD22
:1053AC0070B505460E46B9B1046834B12046FFF716
:1053BC00CFFF864201D00446F7E73046FFF7C8FF1F
:1053CC003CB118B1031B43F30F1300E00346638198
:1053DC0000E0286000B96C6070BDF8B51746027A21
:1053EC0005460E4612F07F0205D120210830FFF74A
:1053FC00FFFD2A606A602B7A03F0200303F0FF00A4
:10540C0003B35EB12C688CB1E168304635F004FD15
:10541C0050B12046FFF79CFF0446F4E73046F8BD38
:10542C0021462846FFF7BCFF2046F8BD39462846E2
:10543C00FFF796FF0028F3D0037AC66003F07F03D2
:10544C000372F8BDF8BD836893B190ED007B90EDCD
:10545C00166BB4EEC67BF1EE10FA0BD590ED146B17
:10546C00B4EEC67BF1EE10FACCBF012000207047E1
:10547C0001207047002070470368192110B50446BD
:10548C00D86E2DED028B05F075FA236808EE100A24
:10549C00D86E05F02AF81A4905EE100A194A0B685D
:1054AC001F2B14DCB8EEC87B0133B8EE455B0B60E8
:1054BC00B7EE000B9FED0C6B27EE067B87EE056BB2
:1054CC0092ED007B36EE077B82ED007B09E09FEDD1
:1054DC00086B92ED007B27EE067B9FED076B86EE4B
:1054EC00070BBDEC028B10BD6666666666660A40ED
:1054FC00000000000000A03F2FDD24068195034032
:10550C0064EA0020608C002010B50446006806F0A8
:10551C004DFE2060204610BDF0B503698BB00E46E1
:10552C0000F10805114F0593059CAC421BD0616935
:10553C0006A81831FFF760F96169069A487D0B7B64
:10554C00002A08BF3A460290087D01903046097C3B
:10555C0000910749FFF7ECF806A8FFF7F9F805A842
:10556C00FFF7D2FFE0E70BB0F0BD00BFCC65002029
:10557C00A46600200331F0B521F0030487B0064681
:10558C00204634F00BFB10B101190B4601E001462B
:10559C000346002701AD019006F108048DF8147044
:1055AC000290039104930FCD0FC42B6830462360F7
:1055BC0086F8287007B0F0BD38B50B680546002496
:1055CC0008464B600A46CB680C748B60402100F88F
:1055DC00204FFFF70DFD02F1180394612846D461AA
:1055EC002B606A6038BD38B5002304460D468360D5
:1055FC008B682BB102229847EB68E360AB68A36021
:10560C00204638BD38B504461546FFF7E1F8294663
:10561C0004F11000FFF7E7FF204638BDF7B502ABE9
:10562C0003E90600009D019CF5B1036841681A1955
:10563C008A4212D21A5D2AB9A24225D0AF5C9E5C76
:10564C00B74201D01A4601E00132F5E713460132A8
:10565C001E78002EFAD11346E9E7631C82680B44CE
:10566C00934203D901230374002010E04360002906
:10567C00FAD00023A34203D0EA5CCA540133F9E701
:10568C0000220846CA5402E0002BE6D0184603B0AC
:10569C00F0BD73B58DE8030010461D466C469DE8C1
:1056AC000600FFF7BBFF021E05F1080014BF012422
:1056BC00002406D0019E0521FFF79AFC85E84400E2
:1056CC0002E01146FFF794FC204602B070BD0023A7
:1056DC002DE9F3470360064617460D684360002D1D
:1056EC0043D0D5F80C80B8F1000F2CD0404695F97A
:1056FC0008A036F0EDFD394681463046FFF730FE06
:10570C00044620B921463046FFF74AFE20E0BAF1A4
:10571C00000F06DB037AC0F80C8003F07F030372E2
:10572C000FE002AB38468DE8000313E90600FFF7E3
:10573C0075FF20B1237AE06063F07F0323720028A9
:10574C00E0D0204603E039463046FFF709FE08B9A1
:10575C0000200BE03A46294600F00BF80028F7D061
:10576C002846FFF7F5FD0546B9E7012002B0BDE874
:10577C00F0872DE9F0430D7A85B004460E4605F00E
:10578C007F059046052D16D000F1080702D8032D91
:10579C001FD038E0202D01D0402D34D12946384679
:1057AC00FFF726FC00234246314623602046636007
:1057BC00FFF78DFF30E00AC919B90830FFF718FC64
:1057CC0029E08DE80A0003469DE80300FFF761FF1E
:1057DC0022E091E808024046029304ABCDF80C900D
:1057EC0013E90600FFF71AFF024630B12946384686
:1057FC00FFF7FEFB84E804020DE001463846FFF794
:10580C00F7FB104608E029463846FFF7F1FBD6E9CE
:10581C000023C4E90023012005B0BDE8F08310B5D6
:10582C0040B121B90830FFF7E3FB012010BDFFF7B1
:10583C00A0FF10BD10BD00002DE9F041AEB01F4619
:10584C0000230446359D2B7090F906308B421FDBEC
:10585C00002A67D00379002B6FD072B6052914D8B3
:10586C00DFE801F01803050D0B103E4A00E03E4A3C
:10587C003E490EA835F0A0F90CE03D4AF8E73D4A48
:10588C003D49F6E73D4A3E49F3E7037903B162B679
:10589C00002063E00EAE002F2FD0304636F018FDFE
:1058AC00394606EB000802A8FEF792FF2F2102A84A
:1058BC00FFF71EF8431C0CD0421C02A90AA8FFF7E4
:1058CC003FF80AA906A8FEF797FF0AA8FEF740FFC3
:1058DC0003E02C4906A8FEF77BFF069A40462A49AE
:1058EC00349B002A08BF0A46284935F065F906A8FA
:1058FC00FEF72EFF02A8FEF72BFF237903B162B649
:10590C00237903B172B6FFF73FF931F083FE0096AD
:10591C000B4602461E49284635F04EF92379EBB169
:10592C0062B61BE0FFF730F931F074FE02460B460D
:10593C002846184935F040F910E00529A8D801A3EC
:10594C0053F821F005380000DB370000DF3700008A
:10595C00EF370000EB370000F53700002EB0BDE844
:10596C00F08100BFE2660020FB660020F766002095
:10597C0010670020256700202F6700203E6700205D
:10598C00476700204C710020CC6500205667002032
:10599C005F6700206C670020F8B5044608460F4688
:1059AC0036F096FCFE28054601D90020F8BD4FF4D0
:1059BC00807034F0F3F806460028F6D039463544AA
:1059CC0035F096FB00236B70237903B172B6A36894
:1059DC002269BFF35F8F9A1AB2F5807F0DD0DAB2CD
:1059EC0004EB820296610133BFF35F8FA3602079D1
:1059FC0008B162B6F8BD0120F8BD304634F0D6F8D7
:105A0C00F5E7000070B5ADF5047D044604AD8DE8F6
:105A1C00280013460A460121FFF70EFF08B323792D
:105A2C0003B172B689AE2846039636F051FC324665
:105A3C00889928443AF0A8FB63793BB994F81C3454
:105A4C0023B92A4609492068FEF772FE237903B16F
:105A5C0062B60749284635F047F929462046FFF734
:105A6C009BFF00200DF5047D70BD00BF7567002005
:105A7C00DF660020FF29F0B5074685B00D461446B9
:105A8C0003D113B11268194618E0BD421BD023682C
:105A9C0001210E4E01930E4B0E4A00931C233068CD
:105AAC00FFF7B0FF0C4B0B4A012100931D2302970B
:105ABC0001953068FFF7A6FF226808490A98FEF79F
:105ACC0037FE002000E0012005B0F0BD30EC0020D6
:105ADC00CB6700207A670020DF670020E767002093
:105AEC0007B501200093054B12680968FFF7C2FF48
:105AFC0000B1FEE7012003B05DF804FB286800202C
:105B0C0013B51C4600930120064B12680968FFF779
:105B1C00B1FF20B1044B21461868FFF7FDFC0120B2
:105B2C0002B010BD636800202CEC002037B515685E
:105B3C001C4600930120094B2A460968FFF79AFF7F
:105B4C0040B12D68FFF742F8054903462A46204626
:105B5C00FEF7EEFD012003B030BD00BF9E680020B3
:105B6C00CF68002070B5ADF5047D044604AD8DE81A
:105B7C00280013460A460321FFF75EFE08B323797B
:105B8C0003B172B689AE2846039636F0A1FB3246B5
:105B9C00889928443AF0F8FA63793BB994F81C34A4
:105BAC0023B92A4609492068FEF7C2FD237903B1BF
:105BBC0062B60749284635F097F829462046FFF784
:105BCC00EBFE00200DF5047D70BD00BF7567002055
:105BDC00DF66002000000000836830B504462DED20
:105BEC00028BB0EE408B85B0002B56D0017D24206B
:105BFC00334D01F00101FEF705FD217D2520C1F398
:105C0C004001FEF7FFFC217D2620C1F38001FEF749
:105C1C00F9FC237D2B4A012101932B4B286800931F
:105C2C00A623FFF79FFF04F097FB3220FDF762F8E5
:105C3C0004F092FB217CA06894ED107B28EE078B7E
:105C4C0004F098FE07EE900AA068B8EEE77B27EE0A
:105C5C00088B04F04AFC07EE900AA268B8EE677B4A
:105C6C00538A9BB288EE070B84ED000B03B32169BA
:105C7C00A369164C528A002B08BF2346019192B29D
:105C8C00286802930121124B0392009357230D4A6B
:105C9C00FFF7B8FEBFEE000B0AE0007CFEF7B8FC85
:105CAC0007EE900A9FED040BB8EEE77B27EE000B96
:105CBC0005B0BDEC028B30BD6666666666660A4052
:105CCC0030EC00200069002057690020CC650020D2
:105CDC006869002037B51D460B681468FF2B05D189
:105CEC00226828460C49FEF723FD11E023680121A8
:105CFC000A4801930A4B0B4A009340F25B1300686D
:105D0C00FFF730FF084B226828460849FEF710FDC4
:105D1C00012003B030BD00BF9969002030EC002099
:105D2C00C76900207A670020D4690020D869002058
:105D3C007FB514681D4600930220184B2246096853
:105D4C00FFF798FE30B363680121154E0293236868
:105D5C00144A0193144B00934FF4A3733068FFF76C
:105D6C0001FF606832F086FD0138042808D93368D9
:105D7C002846226893F906300C49FEF7D9FC09E055
:105D8C003668606832F076FD2268B07128460849A2
:105D9C00FEF7CEFC012004B070BD00BF1C6A0020D1
:105DAC0030EC00207A670020716A0020E767002041
:105DBC00816A00202DE9F04F1C460B6889B01568EC
:105DCC00FF2B05D12A6820462549FEF7B1FC43E09C
:105DDC00244B1E68FEF764FFC0B2FEF711FE0746A7
:105DEC00FEF754FF8046FEF733FF8146FEF73AFF7D
:105DFC008246FEF741FF8346FEF75CFF1A4B1B4AB7
:105E0C00012106903046CDF810A0CDF80C90CDF8BD
:105E1C0008800197009340F20113CDF814B0FFF7FE
:105E2C00A1FE2D68FEF746FF0646FEF72FFF07463C
:105E3C00FEF736FF8046FEF70BFF8146FEF712FF9A
:105E4C008246FEF719FF334604902A46084920463D
:105E5C008DE88007FEF76CFC012009B0BDE8F08FDF
:105E6C00A46A002030EC0020DF6A00207A67002052
:105E7C00F96A00202DE9F0411D460B6896B01468B4
:105E8C00FF2B05D1226828462B49FEF751FC4EE02A
:105E9C002368012129480193294B2A4A00934FF486
:105EAC009C730068DFF8C480FFF75CFE226828460C
:105EBC002549FEF73DFCD8F8004014F0010432D11E
:105ECC004046FCF717FA00282DD0204912A8FEF7FF
:105EDC007FFC1F4B06AF0AAE11930EAD1D4B01227A
:105EEC0021461D4810931D4B0C941B68049701937D
:105EFC0012AB039602940095089402F0ADF940465B
:105F0C00FCF7FEF9164A1749134804F0B9FD384658
:105F1C00FFF794F93046FFF791F92846FFF78EF911
:105F2C0012A8FEF715FC10490B4801F094FD012056
:105F3C0016B0BDE8F08100BF696B002030EC00208A
:105F4C00C76900207A6700207C6B00209F6B0020C3
:105F5C005D2F0000CD30000068EA002050EC0020DE
:105F6C00307D00205D5B000040420F004C8D002016
:105F7C00F7B50F681E461468FF2F05D12268184626
:105F8C001449FEF7D5FB22E023680121124D019341
:105F9C00124B134A009340F267132868FFF7E2FD97
:105FAC00012F07D12B6830460E4993F90620FEF7D6
:105FBC00BFFB0CE060682F6832F05CFC2B68B8719A
:105FCC00304693F9063022680749FEF7B1FB0120F1
:105FDC0003B0F0BDAB6B002030EC0020C769002093
:105FEC007A670020F66B00200B6C0020F0B514686B
:105FFC0085B01E46032000932246164B0968FFF716
:10600C0039FD20B3A3680121134D03936368134A30
:10601C000293236828680193114B0093DA23FFF74E
:10602C00A1FD606832F026FC0746FEF745F83846BD
:10603C00FEF7B0FD22680B493046FEF779FB0A4BA0
:10604C00064A01210093E0232868FFF78BFD01200D
:10605C0005B0F0BD3E6C002030EC00207A670020CB
:10606C00886C0020816A00209B6C002070B5ADF517
:10607C00047D044604AD8DE8280013460A4604212D
:10608C00FFF7DAFB08B3237903B172B689AE284661
:10609C00039636F01DF93246889928443AF074F884
:1060AC0063793BB994F81C3423B92A460949206812
:1060BC00FEF73EFB237903B162B60749284634F05C
:1060CC0013FE29462046FFF767FC00200DF5047DE2
:1060DC0070BD00BF75670020DF66002030B51D461F
:1060EC000B6885B01468FF2B02D122680D4913E0B0
:1060FC000D4B01210D481B680D4A597019706368CE
:10610C000293236801930B4B009340F27B130068BE
:10611C00FFF7ACFF226808492846FEF709FB01206F
:10612C0005B030BDAB6C002048EC002030EC0020FA
:10613C007A670020EA6C0020816A0020806808B130
:10614C0033F034BD704782680430034630B54AB131
:10615C000C78157CA5423ABFD4681A46946813464D
:10616C002246F4E7984204D009781A7C914228BF61
:10617C00184630BD000000002DE9FF4115681F4690
:10618C00009302202E4B2A460968FFF773FC002867
:10619C004ED0686832F06EFB312813D8DFF8BC8023
:1061AC00C6B204A9D8F8004001F8026D04342046A8
:1061BC000434FFF7C8FFA04207D043695B7D012B75
:1061CC0009D102E02A681F4901E02A681E493846B5
:1061DC00FEF7AEFA2CE0D8F8008004A908F104040C
:1061EC0001F8016D204608F10804FFF7ACFFA0424E
:1061FC000CD1164B0121164800934FF48E73154A9F
:10620C000068FFF7FFFB9FED0C0B06E0446940466E
:10621C00FFF732F92046FFF7DFFCB7EEC00B0E4953
:10622C003846B7EEC00A8DED000B2A68FEF780FAEF
:10623C00012004B0BDE8F081000000000000000067
:10624C00006D0020D06D00201A6E00208E6D002095
:10625C0030EC0020386D00209E6D00202CEC0020CE
:10626C0037B5041D02AB15462046043403F8011D56
:10627C001946FFF768FFA04204D04369E9B2187CC5
:10628C00FEF7C0F903B030BD37B515681C46009356
:10629C0001200A4B2A460968FFF7ECFB50B1084B6A
:1062AC00002203211868FFF7DBFF2A680549204606
:1062BC00FEF73EFA012003B030BD00BF5C6E00203B
:1062CC002CEC00207D6E002037B515681C46009321
:1062DC0001200A4B2A460968FFF7CCFB50B1084B4A
:1062EC00012203211868FFF7BBFF2A6805492046E5
:1062FC00FEF71EFA012003B030BD00BF5C6E00201B
:10630C002CEC00207D6E002037B515681C460093E0
:10631C0001200A4B2A460968FFF7ACFB50B1084B29
:10632C00002202211868FFF79BFF2A6805492046C6
:10633C00FEF7FEF9012003B030BD00BF5C6E0020FB
:10634C002CEC00207D6E002037B515681C460093A0
:10635C0001200A4B2A460968FFF78CFB50B1084B09
:10636C00012202211868FFF77BFF2A6805492046A5
:10637C00FEF7DEF9012003B030BD00BF5C6E0020DB
:10638C002CEC00207D6E002037B515681C46009360
:10639C0001200A4B2A460968FFF76CFB50B1084BE9
:1063AC00002201211868FFF75BFF2A680549204687
:1063BC00FEF7BEF9012003B030BD00BF5C6E0020BB
:1063CC002CEC00207D6E002037B515681C46009320
:1063DC0001200A4B2A460968FFF74CFB50B10122F9
:1063EC00074B11461868FFF73BFF2A680549204602
:1063FC00FEF79EF9012003B030BD00BF5C6E00209B
:10640C002CEC00207D6E00202DE9F043146885B043
:10641C001E460320009322461D4B0968FFF72AFBFA
:10642C0088B3A06832F026FA0128804602D9226887
:10643C00184925E0606832F01DFA31281BD8DFF8C6
:10644C006490C7B204A9D9F8005001F8017D043555
:10645C0028460435FFF777FEA8420FD043695B7DD1
:10646C00012B0BD142463946D9F80000FFF7F8FE54
:10647C002268094904E02268084901E022680849B9
:10648C003046FEF755F9012005B0BDE8F08300BF9A
:10649C009F6E0020E36E00207D6E0020D06D0020EA
:1064AC002D6F00202CEC0020F0B5156885B01E4631
:1064BC00032000932A46154B0968FFF7DBFA08B353
:1064CC00A86832F0D7F90746686832F0D3F931285A
:1064DC0013D80F4B04A91C6801F8010D0434204695
:1064EC000434FFF730FEA04204D04369F9B2187CA3
:1064FC00FEF794F82A68074901E02A6806493046F5
:10650C00FEF716F9012005B0F0BD00BF786F002032
:10651C002CEC00207D6E0020D06D002070B506465E
:10652C000C468CB1E1683046FFF7F8FF04F120000F
:10653C00A568FEF783FE04F11000FEF709F920466A
:10654C0004F074FA2C46ECE770BD10B50446816873
:10655C00FFF7E4FF204610BD70B58B681646044665
:10656C000D1D012253B130781D461A7C904239BF63
:10657C0098680122D86800220346F3E732B1CA6852
:10658C0095420AD0284605F013FE00E028463378E1
:10659C00027C9A424FF0000302D284E8280001E00A
:1065AC0084E80900204670BD2DE9DF4F00F1040A94
:1065BC0007230646C7680AF104090362052301771D
:1065CC004C46436247B13B7C262B9ABFFB6827465F
:1065DC00BB683C461F46F5E7A14502D0237C272B20
:1065EC0024D9182004F054FA2723A14580460374BB
:1065FC004FF0000300F1100B436127D1B369002B5E
:10660C005DD07269137C262B59D8914550D0107CE3
:10661C0098F8103083422CBF002001204B46414695
:10662C0005F0C8FDB3690133B361444663690121C8
:10663C00187CFDF7E7FF736A254906F12800B1FBCA
:10664C00F3F101F01DFA04B0BDE8D08F237C272BA9
:10665C000FD93269944228D0204605F0A9FD037C5D
:10666C000246262B2BD8C368002B0CBF00242246D5
:10667C001BE01FD0736901949C4214D001A8FEF753
:10668C0043FF036898F810201B7C9A4204D2E368FD
:10669C004BB1019F3C4606E05A46514602A8FFF713
:1066AC005BFF029F039C22463C461AB1002CACD0E7
:1066BC000120B3E74046A04604F0B8F9B5E75A46C6
:1066CC00514602A8FFF748FF029C039AEDE700BF72
:1066DC0040420F0073B514681D46009302200C4B0A
:1066EC0022460968FFF7C6F978B10A4B60681E6844
:1066FC0032F0C0F8011C304618BF0121FFF754FFDF
:10670C00226805492846FEF713F8012002B070BD37
:10671C00067000202CEC0020816A00201FB50B466F
:10672C008DE8060002680949002A08BF0A464BB1E9
:10673C0081680292039104A9019A11E90300FEF702
:10674C00A8FF00E0184605B05DF804FBCC650020FE
:10675C002DE9F041012304460F4690468D680E1D2D
:10676C006DB105F110014046FEF7A6F800282E4643
:10677C0019BFAA680123EA6800231546F0E74BB15C
:10678C00FB689E4201D125600DE0304605F010FDFE
:10679C00054600E03546414605F11000FEF78CF841
:1067AC0018B100232360666001E02560606020461C
:1067BC00BDE8F0812DE9F8431F460B1D04460E463B
:1067CC009A4215460DD14B69002B4BD008693946BE
:1067DC001030FEF771F8002844D000232360336991
:1067EC003EE002F1100938464946FEF765F880464E
:1067FC00A0B1F368AB4201D1236031E0284605F02B
:10680C00D7FC394680461030FEF756F850B3D8F80E
:10681C000C300BB923601DE0256017E03946484663
:10682C00FEF74AF8C8B13369AB4202D1C4F8008014
:10683C0016E0284605F0BAFC804600F110013846F7
:10684C00FEF73AF870B1EB6813B9236065600EE09F
:10685C00C4F80080C4F8048009E02560606006E09C
:10686C00636004E03A4631462046FFF771FF20464C
:10687C00BDE8F8832DE9F74F05460C469146071DF8
:10688C004C4533D023463A4629466846FFF792FFDB
:10689C00019E4EB3009B63B9B7420AD006F11001BA
:1068AC002046FEF709F810F1000818BF4FF0010858
:1068BC0001E04FF00108302004F0EAF800F1100B71
:1068CC00824621465846FDF797FF04F110010AF164
:1068DC002000FEF788FE3B4632465146404605F006
:1068EC0069FC6B6901336B612034C9E703B0BDE807
:1068FC00F08F00002DE9F04F9848ADF54B7D05F079
:10690C0003F8974A9749954804F0BAF8964A974B7A
:10691C009749D360974B94489360914A04F0B0F830
:10692C00954A964B9249D360954B934893608C4A09
:10693C0004F0A6F8934A944B8D49D360934B91483D
:10694C009360874A04F09CF8914A924B8849D36033
:10695C00914B8F489360824A04F092F88F4A904B87
:10696C008349D3608F4B8D4893607D4A04F088F83F
:10697C008D4A8E4B7E49D3608D4B8B489360784A01
:10698C0004F07EF88B4A8C4B7949D3608B4B894849
:10699C009360734A04F074F8894A8A4B7449D36043
:1069AC00894B874893606E4A04F06AF8874A884B93
:1069BC006F49D360874B85489360694A04F060F84F
:1069CC00854A864B6A49D360854B83489360644AF9
:1069DC0004F056F8834A844B6549D360834B814855
:1069EC0093605F4A04F04CF8814A824B6049D36053
:1069FC00814B7F4893605A4A04F042F87F4A804B9F
:106A0C005B49D3607F4B7D489360554A04F038F85E
:106A1C007D4A7E4B5649D3607D4B7B489360504AF0
:106A2C0004F02EF87B4A7C4B5149D3607B4B794860
:106A3C0093604B4A04F024F8794B7A4A18464C4937
:106A4C00DA60794ADFF85CA29A60454A019304F057
:106A5C0017F8764A50464649CAF80C20744ADFF8B3
:106A6C004892CAF808203E4A04F00AF8714B724A60
:106A7C0018463F49DA60714A714D9A60384A03F002
:106A8C00FFFF704A3A494846C9F80C206E4A6F4FCE
:106A9C00C9F80820324A03F0F3FF6D4A34492846FE
:106AAC00EA606C4A6C4CAA602D4A03F0E9FF6B4A11
:106ABC002F493846FA606A4ADFF8F081BA60284AF2
:106ACC0003F0DEFF6748684A2949C260674A684E8E
:106ADC008260234A03F0D4FF664A25492046E260CF
:106AEC00654ADFF8CCB1A2601D4A03F0C9FF634AC6
:106AFC001F494046C8F80C20614AC8F80820184ABB
:106B0C0003F0BEFF5F4A1A493046F2605E4AB2603B
:106B1C00134A03F0B5FF5D4A15495846CBF80C20D3
:106B2C005B4ACBF808200E4A03F0AAFF1E4A5949CB
:106B3C0002A8FEF767FD1F4A57490AA8FEF762FD37
:106B4C00019B564912A81A46FEF75CFD5A46544959
:106B5C001AA8FEF757FD5246ACE000BF1EEE00200F
:106B6C00307D002095980000F4EB00204554000087
:106B7C00BF3100000530000038EC0020713A0000F5
:106B8C000F300000D0EB0020E9400000193000006D
:106B9C00C0ED00205956000023300000B0ED00205D
:106BAC00295800002D30000030ED00207943000002
:106BBC003730000080EB0020194400004130000009
:106BCC0060EB0020394300004B30000050EB0020FC
:106BDC00F94200005530000040EB0020B9420000A3
:106BEC005F30000030EB002079420000693000007B
:106BFC00A0ED0020394200007330000090ED002021
:106C0C00F94100007D30000060ED00205D3F000088
:106C1C0087300000D0ED00209D2F00009130000047
:106C2C0090EB0020253D00009B3000009D3A0000B9
:106C3C00A5300000E8ED0020513A0000AF30000014
